:020000040800F2
:1000000098AB002045010008FD3700084F3000087C
:1000100019350008A10D0008114700080000000074
:10002000000000000000000000000000BF3D0008CC
:10003000E513000800000000C93A0008C13D0008AF
:100040005F0100085F0100085F0100085F01000810
:100050005F0100085F0100085F0100085F01000800
:100060005F0100085F0100085F0100085F010008F0
:10007000910F00085F0100089D0F0008A90F0008FC
:100080005F0100085F0100085F0100085F010008D0
:100090005F0100085F0100085F0100085F010008C0
:1000A0005F0100085F0100085F0100085F010008B0
:1000B0005F0100085F0100085D3E00085F01000865
:1000C0005F0100085F0100085F0100085F01000890
:1000D0005F010008214600085F01000895460008FE
:1000E0005F0100085F0100085F0100085F01000870
:1000F000813E00085F0100085F0100085F01000801
:100100005F0100085F0100085F0100085F0100084F
:100110005F0100085F010008693E0008753E0008A5
:100120005F0100085F0100085F0100085F0100082F
:10013000DFF80CD000F034FC00480047855400087C
:1001400098AB00200648804706480047FEE7FEE7D8
:10015000FEE7FEE7FEE7FEE7FEE7FEE7FEE7FEE777
:10016000153E000831010008202A04DB203A21FA5C
:1001700002F00021704721FA02F3D040C2F12002C0
:1001800091400843194670470649074A086850439A
:1001900043F2390210440860400870470149086082
:1001A00070470000CC0000206D4EC641D2B201E085
:1001B00000F8012B491EFBD270470022F6E710B56C
:1001C00013460A4604461946FFF7F0FF204610BDC5
:1001D000F0B480EA0102D40F4200B2EB410F02D228
:1001E0000246084611464A0042D0C30DDDB2C1F3B3
:1001F000C752AD1A202D35DAC1F3160141F40002C1
:1002000004B15242C5F1200602FA06F12A41104417
:10021000B3EBD05F23D0C4B1012DA0EBC35009DCF8
:10022000F0BC4FF0004202EAC352DBB200F500001E
:1002300000F0E3BA400000F1807000EBC350A0F181
:10024000807040EAD170490009E0490841EAC07174
:10025000A0EBC35000F50000400800EBC350F0BC19
:1002600000F0C2BA6142012202EB4101001BF6E735
:10027000F0BC704781F00041AAE780F00040A7E79A
:1002800030B480EA010202F0004530F0004221F073
:10029000004013D090B1C30DD40DC2F31601C0F3CA
:1002A0001600E41A41F4000140F400027D3491424A
:1002B00001D3641C00E04900002C02DA30BC0020AD
:1002C00070474FF400000023914201D3891A034381
:1002D00040084FEA4101F7D151B1914202D14FF0AC
:1002E000004105E002D24FF0010101E06FF0010191
:1002F00003EBC450284430BC00F076BA2DE9FE4F21
:10030000804681EA0300C00F0C46009021F00041B6
:1003100023F00045B8EB0200A94105D24046214632
:1003200090461C460B46024623F00040104347D03F
:10033000270DC7F30A00C3F30A510290401A019037
:1003400040286BDAC3F3130040F4801B00989246F8
:1003500020B10023D2EB030A63EB0B0B0198594643
:10036000C0F14002504600F01EFA06460D465046C7
:100370005946019A00F026FA10EB0800614100246A
:1003800087EA115284EAE7731A4340D0009A62B3B5
:10039000019A012A4FEA075215DC001B61EB0201AA
:1003A0004FF0004202EA0752CDE90042001C41F53D
:1003B000801132462B4600F05DFA03B0BDE8F08FA5
:1003C00040462146F9E7001B61EB0201001C41F5A4
:1003D000801300185B412018A2F5001747EB0301BA
:1003E00040EAD570B6196D4111E06D084FEA360646
:1003F00045EAC0754FEA0752001B61EB0201001C81
:1004000041F5801149084FEA300000195141324648
:100410002B4603B0BDE8F04F00F01DBA0098012252
:1004200040000023D0EB020263EBE073009821460A
:100430004FEAE074B8EB000061EB0401E9E783F0F8
:1004400000435BE781F0004158E72DE9FE4F81EA68
:10045000030404F0004421F0004100944FF0000B2D
:1004600023F0004350EA01045ED052EA03045BD05B
:10047000C3F30A54C1F30A552C44A4F2F334019493
:10048000A0FB0254C1F3130141F48011C3F3130321
:1004900043F4801301FB024400FB034E840A970AD5
:1004A00044EA815447EA8357A4FB076802958D0A02
:1004B00005FB07854FEA932C04FB0C542705029D8E
:1004C0004FEA065847EA1637B5EB08056EEB070CFE
:1004D000870E920E47EA811742EA8312A7FB0201B8
:1004E000B6EB0B0164EB00042B0D43EA0C335E18F2
:1004F00044EB1C50DA465146E7FB0201C5F31304F6
:100500004FEA0B3343EA14534FEA0432019C43EAA7
:100510000603A4F10C040294009CCDE900B400F0A1
:10052000A9F903B0BDE8F08F00200146F9E72DE9F5
:10053000F04D81EA030404F0004B21F0004514461D
:100540004FF0000A23F0004150EA050220D054EA9F
:1005500001021DD0C5F30A570246C5F31303C1F3C8
:100560001300C1F30A5640F4801543F48013A7EB3F
:100570000608101BD64608F2FD3873EB050002D3BF
:1005800008F1010801E092185B41B8F1000F03DAAD
:1005900000200146BDE8F08D00204FF48011064692
:1005A00084460EE0171B73EB050705D3121B63EBA4
:1005B000050306434CEA010C49084FEA3000921843
:1005C0005B4150EA0107EDD152EA030012D082EA02
:1005D000040083EA0501084305D0101BAB4106D295
:1005E0000122002306E000224FF0004302E06FF0FA
:1005F000010253101AEB06004CEB085110EB0A00F5
:1006000041EB0B01BDE8F04D00F025B970B521F0CC
:10061000004303430CD0C1F30A550024D5EB040575
:1006200064EB0403D617AD1AB34102DB0020014688
:1006300070BD201841EB025170BDC10F80EAE0701F
:100640000844CA079623002100F0D7B89623002259
:10065000114600F0D2B80EB5C10F80EAE070084430
:10066000CA07002140F233438DE80E000A460B46CC
:1006700000F000F903B000BD0EB540F23341029125
:100680000021CDE900110A460B4600F0F3F803B053
:1006900000BD00F0004230F000400AD0C10D01F56D
:1006A0006071C0F3160042EA0151C20840071143CD
:1006B000704700200146704701F0004330B421F03C
:1006C000004150EA010206D00A0DA2F56072C1F3A2
:1006D0001301002A02DC30BC00207047440F44EABA
:1006E000C104C100E01830BC00EBC25000F07CB87F
:1006F000002801DBC0F10040002901DBC1F100410D
:1007000081427047002801DBC0F10040002901DB75
:10071000C1F100418842704730B50B4601460020C8
:100720002022012409E021FA02F59D4205D303FAB3
:1007300002F5491B04FA02F52844151EA2F1010234
:10074000F1DC30BD2DE9F05F0546002092469B4666
:1007500088460646814640241BE0284641464746D7
:100760002246FFF701FD53465A46C01A914110D365
:1007700011461846224600F016F82D1A67EB0108BC
:100780004F4622460120002100F00DF817EB00092A
:100790004E41201EA4F10104DFDC484631462A46C2
:1007A0004346BDE8F09F202A04DB203A00FA02F11C
:1007B000002070479140C2F1200320FA03F319434F
:1007C00090407047202A06DBCB17203A41FA02F00E
:1007D00043EAE07306E041FA02F3D040C2F120029E
:1007E00091400843194670470029A8BF7047401C34
:1007F000490008BF20F00100704710B4B0FA80FC37
:1008000000FA0CF050EA010404BF10BC704749B173
:10081000CCF1200421FA04F411FA0CF118BF0121E3
:1008200021430843A3EB0C01CB1D4FEA00614FEAC3
:10083000102042BF002010BC704700EBC350104492
:100840000029A4BF10BC7047401C490008BF20F01D
:10085000010010BC704710B5141E73F1000408DAD3
:10086000401C41F1000192185B411A4301D120F074
:10087000010010BD2DE9F04D92469B4611B1B1FA31
:1008800081F202E0B0FA80F220329046FFF78BFF4F
:1008900004460F4640EA0A0041EA0B0153465A4615
:1008A000084313D0114653EA010019D0C8F14002A1
:1008B0005046FFF759FC05460E46504659464246FB
:1008C000FFF771FF084305D0012004E020463946B8
:1008D000BDE8F08D0020054346EAE0762C4337431F
:1008E0000A986305E40AA0EB08000022FD0A44EA26
:1008F00047540A3002D500200146E9E701051019E6
:100900006941DDE9084500196941BDE8F04DA2E7FC
:10091000C1F30A52C1F3130140F2FF3341F48011D5
:100920009A4202DA00200146704740F233439A426D
:10093000A2F2334202DC5242FFF716BCFFF733BF8C
:1009400030B5041E71F1000404DB4FF00044404256
:1009500064EB0101141E73F1000405DB1C464FF02B
:100960000043524263EB04038B4208BF824230BD16
:1009700030B5041E71F1000404DB4FF00044404226
:1009800064EB0101141E73F1000405DB1C464FF0FB
:100990000043524263EB0403994208BF904230BDCA
:1009A000064C074D06E0E06840F0010394E80700BC
:1009B00098471034AC42F6D3FFF7BEFB60560008F0
:1009C0008056000830B50178FF291ED1417855299D
:1009D0001BD10179022918D141886FF4004249BA2C
:1009E0008C1801222E4B2F49092C0ED2DFE804F07F
:1009F000050E172029323B4D4400B0F8050040BADF
:100A00000880012801D92849088030BDB0F80500C8
:100A10004D8844BAA542F8D040BA48803DE0B0F8CD
:100A200005008B8842BA9342EFD040BA888030BD2F
:100A3000B0F80500CD8844BAA542F8D040BAC880C5
:100A40002BE0B0F805000D8944BAA542EFD040BABA
:100A5000088122E0B0F805004D8944BAA542E6D0ED
:100A600040BA488119E0B0F805008D8944BAA54222
:100A7000DDD040BA888110E0B0F80500CD8944BAD5
:100A8000A542D4D040BAC88107E0B0F805000D8A6D
:100A900044BAA542CBD040BA08825A7030BD00009B
:100AA00032000020984D00200E00002010B5017883
:100AB000FF291BD14178552918D10179022915D177
:100AC00041884ABA7D49322A7DD02EDC132A7BD058
:100AD00016DC042A79D00ADC012A7DD0022A76D0DD
:100AE000032A03D1B0F8050040BA888010BD112A4E
:100AF0006ED0122AFAD1B0F8050040BA888110BD34
:100B0000222A66D008DC142A70D0212AF7D1B0F846
:100B1000050040BA488210BD232A68D0312AFAD194
:100B2000B0F8050040BA088310BD40F20524A2F2D7
:100B30000523A24270D01CDC40F20224A2F2022360
:100B4000A2426AD00CDC412A7FD0422A67D0A2F5AB
:100B50000072013AE8D1B0F8050040BA088410BD2F
:100B6000012B71D0022BFAD1B0F8050040BAC8842D
:100B700010BD032B41D008DC012B70D0022BF7D124
:100B8000B0F8050040BA888510BD03F2C623B3F55E
:100B900080437AD003F69513B3F5005FF4D1B0F833
:100BA000050040BAA0F5B4415A39EDD100F006F97C
:100BB0004349012008704148123800880128E3D1D8
:100BC000BDE8104006E03AE021E011E004E008E072
:100BD00018E02AE002F0BABAB0F8050040BA08807E
:100BE00010BDB0F8050040BA488010BD18E021E003
:100BF000B0F8050040BAC880F7E7B0F8050040BA81
:100C00000881F2E7B0F8050040BA4881EDE7B0F896
:100C1000050040BAC881E8E72DE021E015E019E0C1
:100C2000B0F8050040BA0882DFE7B0F8050040BA26
:100C30008882DAE7B0F8050040BAC882D5E7B0F894
:100C4000050040BA4883D0E70FE0B0F8050040BA8D
:100C50008883CAE7B0F8050040BAC883C5E70FE04B
:100C6000B0F8050040BA4884BFE7B0F8050040BAC4
:100C70008884BAE709E0B0F8050040BA0885B4E70F
:100C8000B0F8050040BA4885AFE7417901F05A0253
:100C9000817901F0A5010A43094911318A7042792D
:100CA000807982F0570200F057000243CA70BDE815
:100CB00010400A22034802F099B90000AA4D002012
:100CC00032000020904C002010B50178FF2932D16D
:100CD000417855292FD1017902292CD34188164A10
:100CE00049BAA1F5407101390BD0012915D002296B
:100CF0001ED118E0431854185B79491C84F8A630BB
:100D000089B203798B42F5D80B4812380088012844
:100D10000ED10A49032008800AE0B0F8050040BA65
:100D2000A2F8660104E0B0F8050040BAA2F8680134
:100D300003490120087010BDAA4D00200E000020BC
:100D40003200002010B50446014612A003F0E2FC78
:100D5000124A23074FF001004FF0000101D55171F5
:100D600002E0A30600D55071E30701D0907000E0C7
:100D70009170A30701D5D07000E0D170630701D551
:100D8000107100E01171E30601D5907110BD9171F1
:100D900010BD000025780D0A000000003B00002077
:100DA000FEE700000020044A01461318401C83F8A7
:100DB000A610C028F9DB7047AA4D002070B5594C29
:100DC0000A25208850B1B0FBF5F1B0FBF5F205FB28
:100DD000110355A104F5B57003F0ACFC62881AB19B
:100DE00054A1564803F0A6FCA088FFF745FC544EDA
:100DF00000223346FFF79BFB024650480B4651A1A9
:100E00000A3003F097FCE28822B14C4850A114301C
:100E100003F090FC608950B1B0FBF5F1B0FBF5F246
:100E200005FB1103454840A11E3003F083FCA28955
:100E300022B142483FA1283003F07CFCE089FFF753
:100E40001BFC00223346FFF772FB02463B480B4671
:100E50003CA1323003F06EFC228A22B137483CA11B
:100E60003C3003F067FC608A60B1FFF705FC0022AC
:100E70003346FFF75CFB024630480B4636A146304E
:100E800003F058FCA28A22B12C4831A1503003F063
:100E900051FC208BFFF7F0FB00223346FFF747FBA6
:100EA000024626480B462FA15A3003F043FC628BC2
:100EB00022B122482EA1643003F03CFCE28822B12A
:100EC0001E482CA18C3003F035FC628822B11B48EF
:100ED00028A1783003F02EFC228A22B1174825A1E0
:100EE000823003F027FC608950B1B0FBF5F1B0FB14
:100EF000F5F205FB1103114820A16E3003F01AFC36
:100F0000228822B10D4820A1963003F013FC62899B
:100F1000002A06D0BDE8704008481BA1A03003F0AD
:100F200009BC70BDAA4D0020253032642E253164E5
:100F30002420000025644D687A2000001E4F002008
:100F4000000024402530322E316625252020000067
:100F5000256452706D2000002530332E3166242028
:100F6000000000002530322E3166252520000000CB
:100F70002564000025303464000000002530326410
:100F80002E2531640000000025303364230000006A
:100F9000014800F0D9BA0000F0490020014800F0F3
:100FA000D3BA0000544D0020014800F0CDBA000033
:100FB000104D002030B590F840500124AC40C56B76
:100FC0006C60046863604368102B036803D0996009
:100FD0000068C26030BD9A600068C16030BD00002A
:100FE00070B5054600F064F80E4C0DB1012200E02A
:100FF00000220221204600F04CFD022000F0E6F91C
:1010000001221146204600F044FD022000F0DEF9E6
:1010100000220121204600F03CFDBDE87040022086
:1010200000F0D4B9000C014070B5184E0024012224
:101030000221304600F02DFD00F02AF80025600660
:10104000040E022000F0C2F901221146304600F0E1
:1010500020FD022000F0BAF90221304600F014FD14
:1010600008B144F0010400220121304600F011FDD6
:10107000022000F0ABF96D1CEDB2082DDFD3002289
:101080000121304600F005FD204670BD000C0140F6
:101090001FB50220009000200190029001200390D3
:1010A0006946024800F0FCFB1FBD0000000C014037
:1010B0001FB5022000900120019002900390694624
:1010C000014800F0EDFB1FBD000C014010B5FFF71B
:1010D000EFFF114C01220221204600F0DAFC022031
:1010E00000F074F901221146204600F0D2FC0220E3
:1010F00000F06CF900220221204600F0CAFC022018
:1011000000F064F900220121204600F0C2FCBDE895
:101110001040022000F05AB9000C014010B5FFF752
:10112000C7FF0D4C00220221204600F0B2FC022035
:1011300000F04CF900220121204600F0AAFC022018
:1011400000F044F901220221204600F0A2FCBDE893
:101150001040022000F03AB9000C01402DE9F041A6
:1011600005460027FFF7A4FF204E0024280601D5DE
:10117000012200E000220221304600F08AFC022019
:1011800000F024F901221146304600F082FC0220D2
:1011900000F01CF900220121304600F07AFC6806BC
:1011A000641C050EE4B2082CE0D301220221304673
:1011B00000F06FFCFFF76CFF022000F007F901223E
:1011C0001146304600F065FC022000F0FFF80221D5
:1011D000304600F059FC40EA070400220121304665
:1011E00000F057FC2046BDE8F0810000000C0140F3
:1011F0002DE9F04115460C4606460BB3FFF766FF96
:10120000D020FFF7ABFF70BB3046FFF7A7FFFFF71B
:101210005DFFD120FFF7A2FF00266F1E0DE000BF8B
:10122000FFF702FF2070BE4201D1012000E0002044
:10123000FFF7D6FE761CF6B2641CAE42F0D312E085
:10124000FFF744FFD020FFF789FF60B93046FFF772
:1012500085FF002605E02078FFF780FF761CF6B2B8
:10126000641CAE42F7D3BDE8F041FFF757BF000062
:101270001CB5244C48B30123072269460020FFF720
:10128000B7FF9DF80000182100F07F0020709DF846
:10129000010000F07F0060709DF8020000F03F0048
:1012A000A0709DF8030000F00700E0709DF80400B6
:1012B00000F03F0020719DF8050000F01F006071F4
:1012C0009DF806000843A0711CBD20788DF8000031
:1012D00060788DF80100A0788DF80200E0788DF834
:1012E000030020798DF8040060798DF80500A0795D
:1012F0008DF806000023072269461846FFF778FF9D
:101300001CBD0000B700002070B51C4CA08C00284C
:1013100031D01B4E306800282DDD94F82C0022348B
:1013200001F084FE351D2870207A01F07FFE687080
:10133000A07901F07BFEA870A07801F077FE2871FB
:10134000207801F073FE6871A088223CA0B100F003
:10135000070001F06BFEE87094F82000A0F5FA6039
:10136000C0B201F063FEA8710548001D00F00AF844
:101370003068401E306070BD0720ECE7AA4D0020A9
:10138000AC00002010B50023014607221846FFF7E5
:101390002FFF00210E2000F006F80021BDE81040CC
:1013A0000F20AFF3008070B50C460546FFF78EFEA8
:1013B000D020FFF7D3FE28B92846FFF7CFFE2046FE
:1013C000FFF7CCFEBDE87040FFF7A8BE002206E0A4
:1013D0000021491CC9B21E29FBD3521CD2B2824241
:1013E000F6D370477047704701680A6822F00E0212
:1013F0000A6001680A6822F001020A6090F8402041
:10140000C36B012101FA02F25A6080F82110002119
:1014100080F82010084670472DE9F05F90F8211001
:101420000024022903D004218163012485E001689E
:101430000A6822F00E020A6001680A6822F00102BE
:101440000A603F4E3E4FB215DFF8F4C0DFF8F0906F
:10145000DFF8ECA0DFF8E8B0DFF8E4E00168783FFF
:1014600013011502ACF1640CA9F15009AAF13C0A70
:10147000ABF1280BAEF1140E4FF48018B14227D90E
:10148000B9420ED0614512D049451DD0514518D002
:10149000594518D0714501D1424615E0294EB14257
:1014A00001D1012210E0274E1436B14201D11022A1
:1014B0000AE0244E2836B14206D0224A3C329142FC
:1014C00001D11A4600E02A461E49091F0A602BE096
:1014D000B94213D0614517D0494522D051451DD09E
:1014E00059451DD0714501D142461AE0B14202D1A1
:1014F0004FF0807215E0134EB14201D1012210E08D
:10150000104E1436B14201D110220AE00D4E283699
:10151000B14206D00B4A3C32914201D11A4600E05A
:101520002A46074980394A60012180F821100021AC
:1015300080F82010416B01B188472046BDE8F09F3C
:1015400080000240080402402DE9F05FC16B0A6888
:1015500001680B68046C4FF0040808FA04F8844D25
:10156000844E854FDFF814C2DFF81492DFF814A21E
:10157000DFF814B2DFF814E218EA020F65D05FEA70
:10158000437862D50A68920603D40A6822F00402FE
:101590000A60DFF8F0814FF48062016808F11408F6
:1015A00013011402414524D9A9420DD0B1420FD0F4
:1015B000B9421AD0614515D0494515D0514501D1E0
:1015C000120312E0594501D104220EE0714501D108
:1015D00040220AE06D4D1435A94206D06B4A2832EC
:1015E000914201D11A4600E022466749091F0A606C
:1015F00029E0A94213D0B14215D0B94220D06145AB
:101600001BD049451BD0514502D14FF4800217E051
:10161000414502D14FF0806212E0594501D10422C8
:101620000EE0714501D140220AE0584D1435A9421F
:1016300006D0564A2832914201D11A4600E022468D
:101640004B4908394A60C16A71E04FF0020808FA54
:1016500004F818EA020F70D05FEA83786DD50A6843
:10166000920606D40A6822F00A020A60012180F874
:101670002110DFF810814FF40072016808F114089E
:1016800013011402414524D9A9420DD0B1420FD013
:10169000B9421AD0614515D0494515D0514501D1FF
:1016A000120312E0594501D102220EE0714501D129
:1016B00020220AE0354D1435A94206D0334A28329B
:1016C000914201D11A4600E022462F49091F0A60C3
:1016D00029E0A94213D0B14215D0B94220D06145CA
:1016E0001BD049451BD0514502D14FF4001217E0E1
:1016F000414502D14FF0007212E0594501D102225A
:101700000EE0714501D120220AE0204D1435A94296
:1017100006D01E4A2832914201D11A4600E02246E4
:10172000134908394A60002180F82010816A002995
:101730001CD0BDE8F05F0847FFE70825A54015422B
:1017400014D01A0712D50A6822F00E020A6090F827
:101750004020C36B012101FA02F25A60816380F8D4
:101760002110002180F82010016BE0E7BDE8F09F18
:10177000080002401C0002403000024044000240C9
:10178000580002406C000240080402401C04024061
:1017900030B560B11A4B026814219A4209D2194B34
:1017A0001344B3FBF1F18900016417490AE00120F9
:1017B00030BD134B5B421344B3FBF1F1890001646C
:1017C0000F490839C163022180F82110136843F6DC
:1017D000F0718B43F0E901142143D0E902452C4319
:1017E0002143046921434469214384692143194306
:1017F000116000214163012242770177084630BD24
:1018000008040240F8FFFDBF0000024070B5044626
:1018100090F82000002501280CD0012084F8200039
:1018200094F821600020012E06D084F820000225C3
:10183000284670BD022070BD022684F82160A06396
:101840002068066826F0010606602046FFF7B2FB16
:10185000E06A00282068016802D041F00E0106E02D
:1018600021F0040101602068016841F00A01016073
:101870002068016841F001010160D9E770B50446B4
:1018800000F00CF90546601C02D0044800780444BE
:1018900000F004F9401BA042FAD370BDC000002044
:1018A0002DE9F84FDFF8B8A100220AF1040B144625
:1018B00001274FF00F090BF1040E00BF0B6807FA68
:1018C00004F52B40AB4274D1DFF898C14E68A6EB0B
:1018D0000C0866452BD00DDC032E34D005DC36B366
:1018E000012E19D0022E2FD11BE0112E16D0122E50
:1018F0002AD119E0B8F5881F19D006DCB8F5803F69
:1019000015D0B8F5801F1FD111E0B8F5001F0ED01B
:10191000B8F5041F18D10AE0CA6815E0CA68121D9C
:1019200012E0CA6808320FE0CA680C320CE08A681C
:101930002AB1012A4FF0080203D0456104E00422D5
:1019400002E0056100E00022FF2B01D8064601E01D
:1019500000F104064FEA840501D9A5F12005D6F867
:1019600000C009FA05F82CEA080C02FA05F54CEA61
:10197000050CC6F800C04D68ED006AD53A4DAE6959
:1019800046F00106AE61AD6924F0030605F00105DD
:101990000095364D06EB050CDCF80850A6074FEA1B
:1019A000167809FA08F6B543314EB04202D1002646
:1019B0001AE04EE02F4EB04201D1012614E02E4E27
:1019C000B04201D102260FE02C4EB04201D10326D5
:1019D0000AE02B4EB04201D1042605E0294EB04268
:1019E00001D1052600E0062606FA08F62E43CCF8BB
:1019F00008604D68DAF80060ED03554601D51E43D6
:101A000000E09E432E604D68AD0305D5DBF8006015
:101A10001E43CBF8006004E0DBF800509D43CBF898
:101A200000504D68DEF80060ED02754601D51E439A
:101A300000E09E432E604D68AD0205D5084D0C3583
:101A40002E681E432E6004E0054E0C3635689D431B
:101A50003560641C102CFFF431AFBDE8F88F000036
:101A6000000401400000111000100240000001407D
:101A700000080140000C014000100140001401402A
:101A800000180140001C01408068084000D001207F
:101A900070470AB1016170470904FBE7014880689B
:101AA00070470000C000002002488168027811449D
:101AB00081607047C0000020074810B5016841F000
:101AC00010010160032000F073F8002000F006F818
:101AD00000F024F8002010BD0020024070B50D4D2C
:101AE00004464FF47A712878B1FBF0F00A4909688E
:101AF000B1FBF0F000F020FD48B9102C07D2002215
:101B00002146501E00F034F800206C6070BD0120AA
:101B100070BD0000C0000020500000200C4808B537
:101B2000816941F001018161816901F00101009148
:101B3000C16941F08051C161C06900F080500090DE
:101B40000448416821F0E06141F00071416008BD46
:101B5000001002400000014000F01F0201219140EE
:101B60004009800000F1E020C0F80011704700003B
:101B7000F0B40E4B1B680C46C3F30223C3F10705F8
:101B8000042D00D90425191D072901D2002300E0E6
:101B9000DB1E012606FA05F1491E214099409E40B0
:101BA000761E16403143F0BC01F029BE0CED00E07A
:101BB000064900F0070208684FF6FF03184040EAA4
:101BC0000220034A10430860704700000CED00E05B
:101BD0000000FA052DE9F047DFF8548105460E466E
:101BE000D8F8000000F00700B0420CD2D8F800107E
:101BF00021F007013143C8F80010D8F8000000F0C8
:101C00000700B0426FD128684A4C810712D54007BF
:101C100003D5606840F4E06060602878000703D571
:101C2000606840F4605060606068A96820F0F0006F
:101C3000084360602878C00744D06868012816D03F
:101C40002168022816D0890700294CDA616821F042
:101C5000030101436160FFF721FF6968074641F214
:101C6000883001290ED00229814618D026E021684B
:101C70008903E9E78901E7E7FFF710FFC11B494541
:101C800001D918E081466068C0F381000128F3D1D2
:101C900018E000BFFFF702FFC11B49450BD8606881
:101CA000C0F381000228F5D10CE000BFFFF7F6FE7B
:101CB000C11B494502D90320BDE8F087606810F0D8
:101CC0000C0FF3D1D8F80010404601F00701B142E3
:101CD0000BD9016821F0070131430160006800F071
:101CE0000700B04201D00120E6E72878400705D57B
:101CF0006068E96820F4E0600843606028780007C5
:101D000006D56068296920F4605040EAC10060602F
:101D100000F036F86168084AC1F30311515CC8400D
:101D2000064908600020FFF7D9FE0020C4E7000044
:101D30000020024000100240085600085000002019
:101D40000448054900684968044AC1F30221515C0E
:101D5000C84070475000002000100240185600088C
:101D60000448054900684968044AC1F3C221515C2E
:101D7000C84070475000002000100240185600086C
:101D800012A185B00FC98DE80F0014A0144A006895
:101D900004905168134801F00C03042B10D0082B59
:101DA0000ED1C1F38343C9031DF803000AD551685E
:101DB00004AAC1F34041515C0A4A5043B0FBF1F020
:101DC00005B0704708494843FAE7000002030405DC
:101DD000060708090A0B0C0D0E0F10100102000077
:101DE0000010024000127A0000093D002DE9F84F72
:101DF00004460078B94DC00748D06868C0F3810038
:101E0000012807D06868C0F38100022809D16868FA
:101E1000C00306D52868800338D5606800286FD0D5
:101E200034E06068B0F5803F0BD010B1B0F5A02F62
:101E300011D0286820F480302860286820F48020A1
:101E400002E0286840F480302860606888B1FFF7BD
:101E500025FE064609E0286840F480202860F0E767
:101E6000FFF71CFE801B642875D828688003F7D50F
:101E70000CE0FFF713FE064605E000BFFFF70EFE7D
:101E8000801B6428F0D828688003F7D42078944E0B
:101E900080074FF001094FF000083BD5686810F04B
:101EA0000C0F07D06868C0F38100022809D1686868
:101EB000C00306D42868800714D5206901281FD1E3
:101EC00010E02069B0B1C6F80090FFF7E7FD0746C3
:101ED00005E000BFFFF7E2FDC01B0228C4D8286858
:101EE0008007F7D52868616920F0F80040EAC10052
:101EF00028600FE0C6F80080FFF7D0FD074606E037
:101F0000E9E000BFFFF7CAFDC01B022823D82868FC
:101F10008007F7D4207800072CD57248A169D9B181
:101F2000C0F80090FFF7BAFD074604E0FFF7B6FDE2
:101F3000C01B02280FD8686A8007F7D56A484FF49B
:101F4000FA510068B0FBF1F0009000BF0098411E0C
:101F50000091FAD20EE080E0C0F80080FFF79EFD0D
:101F6000074604E0FFF79AFDC01B022875D8686A8F
:101F70008007F7D42078400760D5E8690027C000C3
:101F800008D4E86940F08050E861E869012700F072
:101F90008050009055480168C90513D401688346F4
:101FA00041F480710160FFF779FD824606E000BFD1
:101FB000FFF774FDA0EB0A0064284ED8DBF80000A0
:101FC000C005F5D5E06801280AD008B1052813D06E
:101FD000286A20F001002862286A20F0040002E04C
:101FE000286A40F001002862E06841F2883B98B11D
:101FF000FFF754FD82460BE0286A40F00400286297
:10200000EEE700BFFFF74AFDA0EB0A0159455AD899
:10201000286A8007F6D50CE0FFF740FD824605E010
:10202000FFF73CFDA0EB0A0159454CD8286A800710
:10203000F6D41FB1E86920F08050E861E06988B308
:102040006968C1F38101022945D00228C6F8608081
:1020500004D0FFF723FD044638E034E0FFF71EFD0F
:10206000074604E0FFF71AFDC01B02282BD828689A
:102070008001F7D4206AB0F5803F05D16868A16877
:1020800020F4003008436860D4E908010843696817
:1020900021F4741108436860C6F86090FFF7FEFCF5
:1020A000044606E015E000BFFFF7F8FC001B02281D
:1020B00009D828688001F7D50BE000BFFFF7EEFCD8
:1020C000001B022802D90320BDE8F88F2868800190
:1020D000F4D40020F8E70120F6E7000000100240E9
:1020E0000000424280044242500000200070004044
:1020F00070B5040005D00025A56294F8510010B118
:1021000006E0012070BD84F85050204600F030F801
:10211000022084F851002068016821F0400101602C
:10212000D4E901010843D4E903121143084361696A
:102130000843218B01F400710843E1690843216AD7
:102140000843A16A084321680860A069042101EAE4
:102150001040616A0843216848602068C16921F421
:102160000061C1616565012084F85100002070BDE7
:1021700070B586B000250646009501950295039539
:1021800000681E49884237D11D49886940F4805053
:102190008861886900F480500490886940F00400E8
:1021A00088618869174C00F004000490A02000901A
:1021B000022001900320039069462046FFF770FB40
:1021C0004020CDE90005694620460295FFF768FBEF
:1021D0000E4C0D48C4E900058020C4E90250256179
:1021E00080016561C4E906502046FFF7D1FA08B1C5
:1021F000FFF7F9F8F464666206B070BD0030014084
:1022000000100240000801401C000240F04900207C
:102210002DE9F84F044640680026984617460D46BB
:102220004FF00409B0F5827F01D1A06890B194F815
:102230005000012819D04FF0010B84F850B0FFF77F
:102240002DFC009094F851004FF0000A01280ED0A8
:1022500002267FE084F8519013460A462046CDF8C6
:10226000008000F07DF8BDE8F88F0220FBE7002D2C
:102270006FD0002F6DD084F85190C4F854A0A5639E
:10228000A787E787C4F830A0A4F834A0A4F836A044
:10229000C4F840A0C4F844A0A0684FF40047B84276
:1022A00004D12068016821F4804101602068016840
:1022B000490603D4016841F040010160E068B8B10B
:1022C00033E020688168C90706D0007B05F8010B60
:1022D000E08F401EE0870BE0B8F1000F23D0B8F18B
:1022E000FF3F05D0FFF7DAFB0099411A41451AD2AA
:1022F000E08F0028E5D11BE020688168C90706D07F
:10230000C06825F8020BE08F401EE0870DE0B8F1B1
:10231000000F08D0B8F1FF3F07D0FFF7BFFB0099CF
:10232000411A414501D3032614E0E08F0028E3D190
:102330006068B0F5827F0AD1A068B84202D0B0F5DB
:10234000806F04D12068016821F040010160606D58
:1023500000B1012684F851B084F850A0304682E7DD
:102360002DE9F84F044690F8500000260A9F9A463F
:1023700093460D464FF0010801280ED0012084F845
:102380005000FFF78BFB814694F8510061680128EB
:102390000CD0B1F5827F07D102E00220BDE8F88FB2
:1023A000A16809B9042801D00226BDE055B1BBF1EE
:1023B000000F07D0BAF1000F04D094F851000128A3
:1023C00002D004E00126AFE0052084F8510000208F
:1023D0006065C4F838B0A4F83EA0A4F83CA025631A
:1023E000A4F836A0A4F834A02064606420680168D2
:1023F000490603D4016841F040010160E068B0F58E
:10240000006F606804D0E8B3E08E01283BD06AE03A
:1024100010B1E08E01282ED1216835F8020BC8607A
:10242000E08E401EE08626E0B8F1000F0DD0E08E71
:1024300058B120688168890707D535F8021BC1604B
:10244000E08E401EE0864FF00008E08F58B1206813
:102450008168C90707D0C0682BF8020BE08F401EC7
:10246000E0874FF00108781C05D0FFF717FBA0EBC1
:102470000900B84246D2E08E0028D5D1E08F00286E
:10248000D2D136E0FFE7216815F8010B0873E08E22
:10249000401EE08627E000BFB8F1000F0DD0E08EAF
:1024A00058B120688168890707D515F8011B0173A9
:1024B000E08E401EE0864FF00008E08F58B12068A3
:1024C0008168C90707D0C0680BF8010BE08F401E78
:1024D000E0874FF00108781C05D0FFF7DFFAA0EB8A
:1024E0000900B8420ED2E08E0028D5D1E08F002836
:1024F000D2D13B46012202212046CDF8009001F0C6
:1025000013FC08B103260FE04A463946204601F085
:10251000EDFA18B101262020606505E0A06818B921
:102520002068C16880680090012084F85100002074
:1025300084F85000304631E710B5401EB0F1807F7E
:1025400001D3012010BD4FF0E02460610F2160171E
:1025500001F055F90020A06107202061002010BD86
:102560007047704730B590F83C20012A20D00122F6
:1025700080F83C20022380F83D3003685C6824F03A
:1025800070045C6003685C680D682C435C600368E1
:102590009C6824F080049C6003689C6849680C4334
:1025A0009C6080F83D20002180F83C10084630BD3A
:1025B000022030BD10B5040003D094F83D0010B1E6
:1025C00007E0012010BD002084F83C00204600F008
:1025D0000DF8022084F83D00211D206801F056FC12
:1025E000012084F83D00002010BD000008B5274AF6
:1025F0000168274891420ED1C16941F00401C161CF
:10260000C069002200F00400009002211E20FFF7A4
:10261000AFFA1E2034E01F4A91420ED1C16941F049
:102620001001C161C069002200F010000090114645
:102630003620FFF79DFA362022E0174A91420ED14C
:10264000C16941F02001C161C069002200F0200091
:10265000009011463720FFF78BFA372010E00F4A21
:10266000914211D1816941F4005181618069002258
:1026700000F40050009003212C20FFF779FA2C2061
:10268000BDE80840FFF768BA08BD00000008004038
:1026900000100240001000400014004000340140CF
:1026A0000168CA6842F00102CA600068016841F02E
:1026B00001010160002070470168CA6822F0010230
:1026C000CA600068016A41F21112114207D1016A21
:1026D0009210114203D1016821F001010160002034
:1026E000704770B5044690F83C00012817D00125CA
:1026F00084F83C50022084F83D002068826822F073
:10270000770222F47F4282600868502837D00DDCBF
:10271000202859D005DC88B3102841D151E002208F
:1027200070BD302853D040283AD13FE060282ED0E9
:1027300070280BD0B0F5805F03D0B0F5005F2FD1CB
:1027400010E02068816821F0070115E0CB68D1E92D
:102750000121206801F0E0FB2168886840F07700E3
:1027600088601DE0CB68D1E90121206801F0D4FB2D
:102770002068816841F48041816011E01EE0CA68F0
:102780004968206801F0DAFB5021206806E0CA6839
:102790004968206801F0E3FB6021206801F0C6FB76
:1027A00084F83D50002084F83C0070BDCA68496838
:1027B000206801F0C3FB40212068EFE7002120687A
:1027C000ECE710212068E9E720212068E6E73021C6
:1027D0002068E3E7704770B50446006801694FF070
:1027E0000005C943890715D4C168C943890711D4B5
:1027F000E91E01610120207720688069800720465A
:1028000002D0FFF7E7FF04E000F098F8204600F060
:1028100096F8257720680169C943490717D4C1682C
:10282000C943490713D46FF00401016102202077E6
:102830002068806910F4407F204602D0FFF7CAFF6D
:1028400004E000F07BF8204600F079F82577206856
:102850000169C943090716D4C168C943090712D4DD
:102860006FF008010161042020772068C0698007AB
:10287000204602D0FFF7AEFF04E000F05FF82046EC
:1028800000F05DF8257720680169C943C90617D4AF
:10289000C168C943C90613D46FF010010161082053
:1028A00020772068C06910F4407F204602D0FFF7EF
:1028B00091FF04E000F042F8204600F040F8257750
:1028C00020680169C943C90708D1C168C943C9075C
:1028D00004D1891E0161204600F032F820680169A8
:1028E000C943090609D4C168C943090605D46FF074
:1028F000800101612046FFF733FE20680169C9436A
:10290000490609D4C168C943490605D46FF040019E
:102910000161204600F088F820680169C9438906F2
:102920000BD4C168C943890607D46FF02001016147
:102930002046BDE87040FFF714BE70BD7047704779
:102940002DE9F041304907460068096801252F4C00
:10295000884200D125702E4900260968884209D195
:10296000E08A411CE182142804D9E570E6822848F7
:10297000FFF7A2FE274938680968884241D14FF421
:1029800000412548FFF780F800B1E572607B401CEC
:102990006073607920B1022804D2FEF703FA05E0E3
:1029A000657109E00A2805D200F052FB6079401CED
:1029B000607101E000D1E581607825EA0000607077
:1029C00001F0E0FA154F387818B1FEF79DFC6671FA
:1029D0003E701348807A400706D5A08A411CA18228
:1029E000B0F5166F01D9A570A6820E4801780029AE
:1029F00007D0A179002904D00670BDE8F04101F0AC
:102A000013BCBDE8F0810000344A00200000002023
:102A1000744A0020B44A0020000C0140320000201B
:102A2000984D002033000020704710B50446006820
:102A3000416994F83920C1F3C011212A0BD151B159
:102A4000416921F080014161206B08B1FEF7CCFCA7
:102A5000204601F075FC2068416994F83A20C1F3E2
:102A60008011222A0BD151B1416921F0400141610D
:102A7000606B08B1FEF7B8FC204601F053FC002063
:102A800010BD000000680A4982B088420ED1094892
:102A900000680168C943090708D4016840680090CC
:102AA00001220549034802B000F0AAB902B07047FC
:102AB00000480040D04C00203A00002070B5026869
:102AC00004461068D168536910F00F0F50D003F01E
:102AD000010501F4907635435DD0C20705D0CA05E3
:102AE00003D5E26B42F00102E263420705D5DA0743
:102AF00003D0E26B42F00202E263820705D5DA07F7
:102B000003D0E26B42F00402E263020705D5DA0764
:102B100003D0E26B42F00802E263E26B002A33D09A
:102B2000800604D5880602D5204601F012FC2068F4
:102B30004069E16BC0F38010090700D428B3204638
:102B400001F0F0FB2068416949061AD5416921F07E
:102B500040014161606BA0B11B494163606BFEF7AE
:102B60005BFC002810D0606B416BBDE870400847EB
:102B7000830610D58B060ED52046BDE8704001F0C7
:102B8000E8BB2046FFF77EFF70BD2046FFF77AFFC7
:102B90000020E06370BD030606D50B0604D5204671
:102BA000BDE8704001F0D8BC4006F3D54806F1D529
:102BB000D168204621F04001D160202184F83910ED
:102BC00000F033FA70BD00008542000870B50400C3
:102BD00004D094F83900002510B106E0012070BD42
:102BE00084F83850204600F023F8242084F8390077
:102BF0002068C16821F40051C160204601F0F4FB57
:102C00002068016921F4904101612068416921F047
:102C10002A0141612068C16841F40051C160E56347
:102C2000202084F8390084F83A00002070BD0000AC
:102C3000F0B585B0002400940194029403940646F4
:102C400003684348414D022103220715AB424FD18F
:102C5000836943F480438361836903F4804304936D
:102C6000836943F00403836180693A4D00F00400F6
:102C700004900802CDE90001039269462846FEF758
:102C80000FFECDE90074694628460294FEF708FE5F
:102C9000324D31488027C5E90004C5E902472C615F
:102CA000B8016C61C5E906402846FEF771FD08B120
:102CB000FEF799FB75636E62284D2748443514383A
:102CC00001C5102091C5254845F8104944306C6174
:102CD000AC61EC61FEF75CFD08B1FEF784FB356387
:102CE0000022022125206E62FEF742FF252028E007
:102CF0001B4DAB4227D1C36943F48023C361C36931
:102D000003F480230493836943F00803836180699B
:102D1000CDE9007100F00800CDE90320114D6946AE
:102D20002846FEF7BDFDE814CDE9000469462846B3
:102D30000294FEF7B5FD002211462720FEF718FF8A
:102D40002720FEF709FF05B0F0BD00000038014064
:102D5000001002400008014058000240104D0020C1
:102D600000480040000C0140F8B5044690F83A00D5
:102D700020283CD1C1B3BAB394F83800012836D02A
:102D8000012084F83800A162A2850025E563222095
:102D900084F83A00636B17489862636B1648D862F0
:102DA000636B16481863606B134645630846666B91
:102DB000216802463046091DFEF728FD206801689B
:102DC0004168009184F83850C16841F48071C16055
:102DD0002068416941F0010141612068416941F089
:102DE000400141610020F8BDFFE70120FBE7022020
:102DF000F9E70000DF4200081B4300089542000885
:102E000090F83A30202B22D1F9B1F2B190F8383055
:102E1000012B1CD081628285C2850021C1632222E0
:102E200080F83A2080F838100168CA6842F480724D
:102E3000CA6001684A6942F001024A610068C168DB
:102E400041F02001C160002070470120704702203E
:102E50007047000070B500683249884260D1324C3A
:102E600001262046E179007A61B10025282810D09A
:102E7000627904F10901282A15D0430619D0C82A1D
:102E80001DD01DE000F01F01082904D16071E6711A
:102E900001E0E5716571BDE8704023490122083108
:102EA0002248FFF7ADBF10B1FDF74CFF36E0CE7101
:102EB00034E0C82A01D0082A02D1CE7100E0CD71D9
:102EC00000F07F0000F0ABFCA0717F2826D0627973
:102ED000082A06D0482A13D0882A0BD0C82A1DD128
:102EE00017E002281AD20A7802F00F0242EA001014
:102EF000087013E00A7802F0F00202430A700DE055
:102F000006280BD24A7802F00F0242EA00104870FD
:102F100004E04A7802F0F00202434A70A670B8E773
:102F200070BD00000048004032000020D04C00205E
:102F300070472DE9F843044690F839001F461646BD
:102F40000D46202850D1A5B19EB194F83800012833
:102F50004AD0012084F838004FF00008C4F83C80C3
:102F6000212084F83900FEF799FDA6848146E68485
:102F700026E00120BDE8F883E08C401EE084A068D4
:102F80004B46B0F5805F4FF000024FF080012046C5
:102F9000009703D001F011FBE8B90DE001F00DFB43
:102FA000C8B928882168C0F308004860206908B1C2
:102FB0006D1C05E0AD1C03E0216815F8010B4860AD
:102FC000E08C0028D8D14B460022402120460097B3
:102FD00001F0F3FA08B10320CCE7202084F839008F
:102FE00084F838800020C5E70220C3E790F8393024
:102FF000202B18D1A9B1A2B190F83830012B12D0F2
:1030000001628284C2840021C163212280F83920B8
:1030100080F838100068C16841F08001C16000206C
:103020007047012070470220704770470A2110B591
:10303000B0FBF1F26423B0FBF3F401FB120203FBDB
:103040001400B0FBF1F042EA0010C0B210BDFEE780
:1030500010B52BA12C4801F06DFB2B482BA10A3099
:1030600001F068FB28482CA1143001F063FB2648CE
:103070002CA11E3001F05EFB234821A1283001F075
:1030800059FB214821A1323001F054FB1E4822A1F6
:103090003C3001F04FFB1C4822A1463001F04AFBB6
:1030A000194817A1503001F045FB17481DA15A30AF
:1030B00001F040FB14481EA1643001F03BFB1248B4
:1030C0001DA16E3001F036FB0F481DA1783001F0D4
:1030D00031FB0D4818A1823001F02CFB0A4816A1E3
:1030E0008C3001F027FB084813A1963001F022FB39
:1030F000BDE810404FF4B5711348FDF75EB800000D
:103100002D2D2E2D24200000144F00202D2D2D2D8F
:103110004D687A20000000002D2D2E2D2525202021
:10312000000000002D2D2D2D52706D20000000009C
:103130002D2D2E2D252520002D2D2D2D00000000BC
:103140002D2D2E2D00000000AA4D0020104810B596
:10315000C48900210A230F4A0F48B4F5487F0AD9D1
:103160000479641CE4B204710A2C03D303710523AF
:103170001380C17010BDC82CFCD2C478641CE4B2AA
:10318000C4700A2CF6D3C37004231380017110BDE0
:10319000AA4D00200E00002032000020114808B582
:1031A000416941F0010141614069002200F00100E4
:1031B000009011460C20FEF7DBFC0C20FEF7CCFC47
:1031C000002211460E20FEF7D3FC0E20FEF7C4FCB1
:1031D000002211460F20FEF7CBFCBDE808400F206F
:1031E000FEF7BABC001002402DE9F04186B0002580
:1031F0003E480095019502950395816941F02001B3
:103200008161816901F020010491816941F010011F
:103210008161816901F010010491816941F004012B
:103220008161816901F004010491816941F0080123
:10323000816180692E4E00F0080004900122FF2178
:103240003046FEF726FC2B4F012208213846FEF7B8
:1032500020FC002210213846FEF71BFCDFF8988086
:103260000122FB214046FEF714FCFF200124CDE99A
:1032700000040320CDE9024069463046FEF710FB0A
:103280000820CDE900040226CDE902466946384609
:10329000FEF706FB10208DE8710069463846FEF700
:1032A000FFFAF920CDE900040294694640460394F0
:1032B000FEF7F6FA0096CDE90145694640460394CB
:1032C000FEF7EEFA0420CDE9000569460294404677
:1032D000FEF7E6FA4FF470408DE86100694640461B
:1032E000FEF7DEFA06B0BDE8F081000000100240F3
:1032F0000010014000080140000C0140104810B5CA
:103300000E4901604FF48271416000210222816008
:10331000C0E9031201224261520282610822C0E91F
:103320000721416281620A21C162FEF7E1FE0028A5
:1033300003D0BDE81040FEF756B810BD0030014084
:103340009849002010B586B00024174800940194D5
:1033500002940394049413490594016041F61F41BB
:10336000C0E90114C721C0E9031480218161FFF77E
:1033700021F908B1FEF737F84FF480500090694604
:103380000948FFF7AEF908B1FEF72DF8049404A937
:1033900005480594FFF7E6F8002801D0FEF723F86A
:1033A00006B010BD00080040344A00201CB50024BF
:1033B0000F4800940D490194016041F61F41C0E996
:1033C000011440F2E7318461C160FFF7F3F808B1FE
:1033D000FEF709F80094694605480194FFF7C2F822
:1033E000002801D0FDF7FFFF1CBD000000100040C9
:1033F000744A00201CB500240F4800940D49019424
:10340000016041F61F41C0E9011441F28731C160FA
:1034100080218161FFF7CEF808B1FDF7E4FF009449
:10342000694605480194FFF79DF8002801D0FDF793
:10343000DAFF1CBD00140040B44A002010B586B06D
:1034400000241848009401940294039404941449AD
:103450000594016041F61F41C0E90114C721C0E98C
:1034600003148021C0E90541FFF7A4F808B1FDF776
:10347000BAFF4FF48050009069460A48FFF731F9CF
:1034800008B1FDF7B0FF049404A906480594FFF7BE
:1034900069F8002801D0FDF7A6FF06B010BD0000B6
:1034A00000340140F44A00200C4810B50A4901607C
:1034B0004FF4E1314160002181600C22C160C0E91C
:1034C00004128161C161FFF781FB002803D0BDE8D0
:1034D0001040FDF788BF10BD00380140904C00201F
:1034E0000C4810B50A49016044F6382141600021BA
:1034F00081600422C160C0E904128161C161FFF7EB
:1035000065FB002803D0BDE81040FDF76CBF10BD7F
:1035100000480040D04C0020FEE700002DE9F047B5
:1035200000244FF49277144D4FF060084FF00A09D1
:10353000FCF72AFE90FBF7F107FB1100801D25F830
:10354000140000BFFCF720FE90FBF8F208FB12000D
:1035500005EB4406308200BFFCF716FE90FBF9F243
:1035600009FB1200801C641C3084082CE0DB03493A
:1035700001200871BDE8F087E4A20020540000207B
:103580002DE9F05FDFF85CA1DFF8549100240AF127
:10359000500B00BFFCF7F8FD4FF4967690FBF6F168
:1035A00006FB1100001DFDF748F84F4D45F82400BB
:1035B00000BFFCF7E9FD602790FBF7F107FB110066
:1035C000FDF73BF805EB8408C8F8500000BFFCF796
:1035D000DBFD90FBF6F106FB1100001DFDF72DF859
:1035E000404EA03E46F8240000BFFCF7CDFD90FB06
:1035F000F7F107FB1100FDF720F806EB8401074601
:10360000086556F8241055F82400FCF733FE0646EA
:10361000C9F830004D463946D8F85000FCF72AFE6C
:10362000014668633148864213D3814234D286F022
:103630000040FDF767F803D22D494AF8241035E021
:10364000D5E90C01FCF71CFE4AF824004FF07E502F
:1036500014E0814215D381F000403146FDF748F86F
:1036600013D3286B696B80F00040FCF709FE4AF821
:1036700024001F4802E000BFFCF702FE4BF82400C4
:1036800024E03046FDF73EF8DAD24FF07E514AF89A
:103690002410D5E90C10EFE781F0004186F00040DE
:1036A000FDF730F807D212484AF82400686B296BFE
:1036B00080F00040E0E7286B696B80F00040FCF789
:1036C000DFFD4AF824000A494BF82410641C142C2E
:1036D000FFF660AF052189F80310BDE8F09F0000F8
:1036E0005400002044A2002004A10020000080809B
:1036F000000080BF2DE9F05F214E0024A0464FF46A
:10370000987906F1F00A05274FF00F0BFCF73CFD06
:1037100090FBF9F209FB120080B226F81400FCF7C6
:1037200095FF06EB44054AF82400A5F828803A35B1
:10373000FCF72AFD90FBF7F107FB1100401CE88223
:10374000FCF722FD90FBF7F107FB1100E887FCF77F
:103750001BFD90FBFBF20BFB1200A5F86600401C62
:10376000641CA5F88E00142CD0DB064C0120064901
:10377000A071606AFCF784FD6064BDE8F09F000002
:1037800040A40020540000200000C0422DE9F04772
:103790000024184E4FF4927801274FF003094FF0A0
:1037A0000E0A00BFFCF7F0FC90FBF8F208FB1200D9
:1037B000801D26F8140006EB44052030AF87A5F8DD
:1037C000B40000BFFCF7E0FC90FBF9F209FB12002B
:1037D000A5F87800FCF7D8FC90FBFAF20AFB12007F
:1037E000401C641CA5F8F0001E2CDBDB024847716E
:1037F000BDE8F08714A3002054000020704709079B
:10380000090E002806DA00F00F0000F1E02080F831
:10381000141D704700F1E02080F8001470476628FE
:103820001FD00CDC3F2814D004DC062813D0072856
:103830000DD170474F2812D05B2808D10DE06D28BC
:1038400011D06F2815D07D280FD07F280FD0FF20F2
:103850007047002070470120704702207047032006
:1038600070470420704705207047062070470820E5
:1038700070470920704710B5FFF782FEFFF74EFE34
:10388000FFF784FFBDE81040FFF734BF2DE9F0419A
:10389000B32400260B4D4FF400580127AE7161038D
:1038A0004246094800F074F900F010F8064800F0AC
:1038B00023F800F0BDF8641EAF71002CEEDCBDE80B
:1038C000F0810000000000209804002010B50021C5
:1038D000084B0A465FF0000000EB400403EB441481
:1038E000401C80B262549828F6D3491C89B26029E2
:1038F000F0D310BD6050002030B50A4B00220021EB
:1039000001EBC21401EB4105045D03EB4515E443F3
:10391000491C89B2AC548029F2D3521C92B2402A7D
:10392000EDD330BD6050002070B5404C0125C4F887
:103930009C510020C4F89801C4F890010A2004F5B5
:10394000C874FDF79BFF2560FD2000F09DF8122054
:1039500000F0ACF8AE2000F097F8B32000F094F837
:10396000912000F0A3F8CA2000F08EF83F2000F06C
:103970009DF8A22000F088F8002000F097F8A12020
:1039800000F082F8002000F091F8A02000F07CF810
:10399000142000F08BF8112000F088F8AB2000F024
:1039A00073F8012000F082F8B42000F06DF8A02038
:1039B00000F07CF8FD2000F079F8C12000F064F8F8
:1039C0009F2000F073F8C72000F05EF80F2000F091
:1039D0006DF8B12000F058F8E22000F067F8D1202F
:1039E00000F052F8822000F061F8202000F05EF82C
:1039F000BB2000F049F81F2000F058F8B62000F076
:103A000043F8082000F052F8BE2000F03DF80720EF
:103A100000F04CF8A62000F037F8FFF757FF00F051
:103A200007F8BDE87040AF2000F02EB800802142BA
:103A300030B5152000F028F81C2000F037F85B2086
:103A400000F034F8752000F01FF8002000F02EF888
:103A50003F2000F02BF85C2000F016F8094D002400
:103A60005FF0000303EB430005EB4010005D00F046
:103A70001DF85B1CDBB2802BF4D3641CE4B2402C39
:103A8000EED330BD6050002006490022C1F89421D9
:103A9000C1F88C21044AD0600120C1F88C01C1F822
:103AA0009401704700802142001001400449002227
:103AB000C1F88C21034AD0600120C1F88C01704705
:103AC00000802142001001407047000001B582B023
:103AD00014200090012301AA02A90348FEF740FC2C
:103AE0009DF804000EBD00009849002038B50B4633
:103AF000009204460022802100F016F9002804D02C
:103B0000606D40F020006065032038BD10B5084CA2
:103B1000002210212046FDF7BCFF0620FFF7D6FF4C
:103B200020460122BDE810401021FDF7B2BF000081
:103B30000008014070B50403FFF7E8FF00F090F8BB
:103B40000E4D002210212846FDF7A3FF2020FFF78D
:103B5000BDFFC4F30740FFF7B9FFC4F30720FFF729
:103B6000B5FFE0B2FFF7B2FF012210212846FDF7B2
:103B700090FFBDE8704000F073B8000000080140FD
:103B800010B500F02FF80149088010BDBE000020DC
:103B90002DE9F041114E17460C4605460022102132
:103BA0003046FDF776FF0320FFF790FFC4F3074090
:103BB000FFF78CFFC4F30720FFF788FFE0B2FFF7A1
:103BC00085FF28233A4629460548FEF721FB304663
:103BD000BDE8F04101221021FDF75BBF0008014064
:103BE0009849002070B5114D002422461021284626
:103BF000FDF74FFF9020FFF769FF0020FFF766FFFA
:103C00000020FFF763FF0020FFF760FFFF20FFF7B2
:103C10005DFF44EA0024FF20FFF758FF0443012220
:103C200010212846FDF735FF204670BD00080140F1
:103C300070B50A4D002210212846FDF72AFF052005
:103C4000FFF744FFFF20FFF741FF04460122102148
:103C50002846FDF71EFF204670BD00000008014009
:103C60002DE91040FFF7E4FFC007FBD110BD70B590
:103C700006460C0B15462046FFF75CFF21032A463B
:103C80003046BDE87040AFF300802DE9F0410746B3
:103C9000C8B2C0F580740E461546A24200D814463C
:103CA0004FF4807822463146384600F00DF8A542A0
:103CB00008D0281B2744264485B24446A542F1D8A3
:103CC0002C46EFE7BDE8F0812DE9F04115460C46A2
:103CD0000646FFF71BFF134F002210213846FDF761
:103CE000D8FE0220FFF7F2FEC4F30740FFF7EEFE16
:103CF000C4F30720FFF7EAFEE0B2FFF7E7FE002477
:103D000004E0305DFFF7E2FE641CA4B2AC42F8D3DD
:103D1000012210213846FDF7BCFEBDE8F041FFF757
:103D20009FBF0000000801402DE9F0411D461746E5
:103D30000E460446DDF8188035E0681C33D02DB1FE
:103D4000FDF7ACFEA0EB0800A8422CD32068416828
:103D500021F0E00141606068B0F5827F0BD1A0687E
:103D6000B0F5004F02D0B0F5806F04D12068016833
:103D700021F040010160A06AB0F5005F0AD120681F
:103D800001684DF6FF72114001602068016841F43E
:103D900000510160012084F85100002084F8500097
:103DA0000320BDE8F0812068806836EA000004D076
:103DB0000020B842C1D10020F3E70120F9E77047A5
:103DC000FDF772BE30B58FB028216846FCF7F5F9D3
:103DD00014210AA8FCF7F1F901210804CDE900102B
:103DE0000024029402250491CDE907504FF4E0101D
:103DF00009906846FDF7FAFF0F20CDE90A05680231
:103E0000CDE90C4002210AA80E94FDF7E3FE0FB0A5
:103E100030BD00000D48016841F0010101604168BA
:103E20000B4A1140416001680A4A11400160016873
:103E300021F480210160416821F4FE0141604FF4CA
:103E40001F0181600449C0030860704700100240F0
:103E50000000FFF8FFFFF6FE08ED00E00148FEF766
:103E6000BABC0000344A00200148FEF7B4BC000090
:103E7000744A00200148FEF7AEBC0000B44A00209E
:103E80000148FEF7A8BC0000F44A0020F0B5026823
:103E90001C4B1D4D1D4E1E4F1E4C4FF0804C98422A
:103EA00009D0A04207D0604505D0A84203D0B04257
:103EB00001D0B84204D122F0700E4A6842EA0E02E4
:103EC000984209D0A04207D0604505D0A84203D04F
:103ED000B04201D0B84203D122F44075CA682A43E7
:103EE00022F080054A692A4302608A68C2620A6831
:103EF0008262984201D0A04201D109690163012187
:103F00004161F0BD002C0140000400400008004069
:103F1000000C00400034014010B5846842EA0322DE
:103F200024F47F440A432243826010BD826822F059
:103F300070020A4342F007018160704710B5036ABE
:103F4000046A24F001040462846924F0F00444EA61
:103F5000021423F00A020A438461026210BD10B504
:103F6000036A23F0100303628369046A23F4704335
:103F700043EA023224F0A00343EA011182610162A4
:103F800010BD000038B50120FDF772F95C4CA07936
:103F900032286CD2E078082869D2207800906378C3
:103FA000A27858A15B4800F0C5FB5A48A2785AA1F4
:103FB0000A3000F0BFFB5748627857A1143000F078
:103FC000B9FB5448227854A11E3000F0B3FB51488D
:103FD000E178323008290AD2DFE801F0090406143A
:103FE00016181A1C4EA100E04FA100F0A3FB49488F
:103FF000E1783C30082914D2DFE801F0130E1024D8
:1040000026282A2C4AA1F0E74CA1EEE74EA1ECE7C6
:104010004FA1EAE751A1E8E752A100E052A100F068
:1040200089FB3C486179463013291AD2DFE801F058
:104030001914162C2E303234363819191919191949
:104040003A3C3E0049A1EAE749A1E8E749A1E6E791
:1040500049A1E4E749A1E2E749A100E049A100F054
:1040600069FB2C4861795030132926D200E046E0E4
:10407000DFE801F0231E2031333537393B3D232360
:10408000232323233F4143003FA1E8E73FA1E6E785
:104090003FA1E4E73FA1E2E73FA1E0E73FA1DEE780
:1040A0003FA1DCE73FA1DAE73FA1D8E73FA1D6E790
:1040B0003FA100E040A100F03DFB1648227941A15C
:1040C0005A3000F037FBA279BDE8384011483FA1D3
:1040D000643000F02FBB3FA1EDE740A1EBE72CA13E
:1040E000E9E740A1E7E741A1E5E742A1E3E743A112
:1040F000E1E745A1DFE746A1DDE748A1DBE738BD01
:10410000B7000020253032783A253032783A253011
:104110003278000024A7002025303278000000000B
:104120004D4F4E44415900005455455344415900A8
:104130005745444E45534441590000005448555298
:10414000534441590000000046524944415900007F
:1041500053415455524441590000000053554E44B8
:10416000415900004D4F4E005455450057454400FD
:1041700054485500465249005341540053554E008F
:104180004A414E00464542004D41520041505200C6
:104190004D4159004A554E004A554C004155470083
:1041A000534550004F4354004E4F56004445430082
:1041B0004A414E5541525900464542525541525985
:1041C0000000000025303258000000003230253059
:1041D000325800004D4152434800000041505249BE
:1041E0004C0000004A554E45000000004A554C590D
:1041F00000000000415547555354000053455054AA
:10420000454D4245520000004F43544F4245520035
:104210004E4F56454D42455200000000444543452F
:104220004D424552000000001549A1F5B4700A88BE
:10423000130A037042704A88130A8370C2708A8816
:10424000130A03714271CA88130A8371C2710A8901
:10425000130A037242724A89130A8372C2728A89EC
:10426000130A037342730A8A130A8373C273C989D8
:104270000A0A027441742022D103FFF7F8BC00003F
:10428000984D002010B5406A0021C185C184FEF719
:10429000F9FB10BD70B5446A2068406994F8391084
:1042A000C0F3C0100025212904D118B1E5842046AF
:1042B00000F046F82068406994F83A10C0F3801086
:1042C000222904D118B1E585204600F02BF8E06BD7
:1042D00040F01000E0632046FEF7D4FB70BD10B53F
:1042E0000146406A09680968890613D40021C1851E
:1042F0000168CA6822F48072CA6001684A6922F0C3
:1043000001024A6101684A6922F040024A612021A3
:1043100080F83A10FEF79EFD10BD10B5406AFEF71A
:1043200007FE10BD0168CA6822F49072CA60016875
:104330004A6922F001024A61202180F83A10704750
:104340000168CA6822F0C002CA60202180F83910D2
:10435000704710B590F83A10222901D0022010BD04
:104360008168B1F5805F11D00169002901681FD013
:10437000496801F07F03816A4A1C82620B70C18D1B
:10438000491E0904090CC18518D02BE00269816A15
:10439000002A0268526805D0D2B20A80816A491C9C
:1043A0008162ECE7C2F308020A80816A891CF7E7A0
:1043B0004A68816A4B1C83620A70E0E70168CA6838
:1043C00022F02002CA600168CA6822F48072CA60C2
:1043D00001684A6922F001024A61202180F83A10FE
:1043E000FEF738FD002010BD2DE9F04104460068BD
:1043F0000169E26821F44051114301612169A0681B
:104400000843616908432168CA6841F20C639A4312
:104410000243CA6020684169A26921F440711143D6
:1044200041614C4920686425322688423CD1FDF721
:1044300097FC00EBC00101EB001061688900B0FB44
:10444000F1F7FDF78DFC00EBC00101EB0010616896
:10445000B0468900B0FBF1F0B0FBF5F06FF0180149
:10446000484307EB800106EB0110B0FBF5F000F0CC
:10447000F006FDF775FC00EBC00101EB0010616870
:104480008900B0FBF1F0B0FBF5F006EB0016FDF78C
:1044900067FC00EBC00101EB001061688900B0FB14
:1044A000F1F7FDF75DFC3BE0FDF74AFC00EBC001D6
:1044B00001EB001061688900B0FBF1F7FDF740FCEB
:1044C00000EBC00101EB00106168B0468900B0FB51
:1044D000F1F0B0FBF5F06FF01801484307EB8001F5
:1044E00006EB0110B0FBF5F000F0F006FDF728FC3C
:1044F00000EBC00101EB001061688900B0FBF1F036
:10450000B0FBF5F006EB0016FDF71AFC00EBC0015E
:1045100001EB001061688900B0FBF1F7FDF710FCBA
:1045200000EBC00101EB001061688900B0FBF1F005
:10453000B0FBF5F06FF01801484307EB800108EB82
:104540000110B0FBF5F0216800F00F0030448860E6
:10455000BDE8F0810038014090F83910212901D0E0
:10456000022070478168B1F5805F016A0BD04A1C58
:104570000262026809785160C18C491E0904090C65
:10458000C1840ED017E009880268C1F308015160A8
:1045900001690029016A02D0491C0162ECE7891C0B
:1045A000FBE70168CA6822F08002CA600068C1683F
:1045B00041F04001C160002070472DE9F04198466C
:1045C00017460E460446069D1DE0681C1BD02DB103
:1045D000FDF764FAA0EB0800A84214D92068C1686E
:1045E00021F4D071C1602068416921F0010141616D
:1045F000202084F8390084F83A00002084F838003C
:104600000320BDE8F0812068006836EA000004D08D
:104610000020B842D9D00020F3E70120F9E70000DC
:1046200038B51748FEF74AFA154800680168C1F323
:104630000011002923D0016800254168009101681C
:1046400040680F48FEF7F1F90E48006840680E4CCC
:10465000C0F1FA0020800D48007840B10C48FCF70A
:1046600025FA0B48FCF730FB0948FCF7ABF925802D
:10467000BDE83840FA2206490148FEF775BB38BD4F
:10468000904C0020104D002030000020040000203D
:10469000344B00200148FEF711BA0000D04C002036
:1046A00070B51A4C0D25A07A642813D9FBF76CFD60
:1046B000C11700EB917121F00301401A401CA07258
:1046C000FBF762FDC11700EB917121F00301401A65
:1046D000223012E0FBF758FDC11700EB917121F079
:1046E0000301401A6430A072FBF74EFDC11700EBC6
:1046F000917121F00301401A0A302072FBF744FD4A
:1047000090FBF5F105FB1100E07170BD0000002089
:10471000FEE700000FB4054B10B503A9044A029848
:1047200000F05AF910BC5DF814FB000011510008AC
:10473000D00000200FB4084B10B504A902AA0398BA
:1047400000F04AF9044602A9002000F0DCFC2046F3
:1047500010BC5DF814FB0000075100082DE9F04182
:104760004F1E00EBC7010446D1E9000115461E4665
:1047700037F006020DD02A463346FBF766FE7F1E51
:1047800004EBC703D3E90023FBF7B8FD37F00602BB
:10479000F1D1022F25D0042F13D0062F18BFBDE86A
:1047A000F0812A463346FBF750FED4E90A23FBF793
:1047B000A5FD2A463346FBF748FED4E90823FBF75C
:1047C0009DFD2A463346FBF740FED4E90623FBF75E
:1047D00095FD2A463346FBF738FED4E90423FBF760
:1047E0008DFD2A463346FBF730FED4E90223FBF762
:1047F00085FD2A463346FBF728FED4E90023BDE8B1
:10480000F041FBF77BBD0000002213461046014932
:10481000FBF78DBE0000F03F0122FBF7F7BE002240
:10482000134610461146FBF782BE02E008C8121F6D
:1048300008C1002AFAD170477047002001E001C189
:10484000121F002AFBD17047014908607047000021
:10485000D40000202DE9FF5F82B00021DDE90430A3
:10486000020DDDF840B0034318D044F61050A2F218
:10487000FF3242431514119801281FD0A5EB0B00FD
:10488000401C5FEA000A4FF000064E4FDFF83891F7
:10489000B046504615D5CAF1000413E01198012422
:1048A0004AA3012801D16FEA0B010298119AC0E9CD
:1048B0000031C0E9024206B0BDE8F09FCBF1000034
:1048C000DFE704460021404A491842EB0450CDE995
:1048D000001012E0E00707D032463B46404649460A
:1048E000FBF7B3FD8046894632463B4610461946E3
:1048F000FBF7ABFD06460F466410002CEAD1DDE95C
:104900000401DDE90023BAF1000F06DAFBF79DFD93
:1049100042464B46FBF799FD05E0FBF708FE424691
:104920004B46FBF704FE04460E460022284BFCF7DC
:104930001FF803D84FF0FF30014607E00022254B57
:1049400020463146FBF7DAFCFBF7E2FF102409E0D2
:10495000002C0ADB0A220023FBF7F4FE039B303213
:104960001A55641E50EA0102F2D1641C039AC4F184
:1049700011031444119A012A03D0012208430DD1D6
:104980000AE0084304D000204FF0110B119072E7A9
:10499000A3EB0B056D1E0DE05B4504DD4FF000023F
:1049A00005F1010504E003DA4FF00002A5F101056D
:1049B000002AECD002981199C0E90231C0E9004503
:1049C00079E70000000014400000F03F30000000D4
:1049D0000000F0430000E03F2DE9FF4F95B09B46FB
:1049E0008946064600250FE2252877D10024274670
:1049F000F84A0121059400E0044316F8013F203BEA
:104A000001FA03F01042F7D130782A2811D06FF064
:104A10002F033078A0F13002092A16D8059A44F005
:104A2000020402EB820203EB42021044761C059062
:104A3000EFE759F8042B0592002A03DA504244F4B8
:104A40000054059044F00204761C30782E2816D1CC
:104A500016F8010F44F004042A280DD06FF02F023D
:104A60003078A0F13003092B09D807EB870302EB5C
:104A70004303C718761CF3E759F8047B761C30789B
:104A80006C280FD006DC4C2817D068280DD06A2877
:104A900014D104E0742810D07A280FD10DE044F42A
:104AA00000140AE044F4801401E044F440147278E5
:104AB000824202D104F58014761C761C3078662878
:104AC0000BD013DC582877D009DC002875D0452896
:104AD000F6D04628F4D047281AD19DE118E0632883
:104AE00035D0642879D0652812D195E1702873D02B
:104AF00008DC6728F1D069286FD06E280DD06F28A8
:104B000006D1B5E073282CD0752875D0782874D0DC
:104B10005A46179990476D1C75E1C4F3025002285C
:104B200009D003280DD0D9F8001004280DD00D604D
:104B300009F1040967E1D9F80010EA17C1E9005248
:104B4000F6E7D9F800100D80F2E70D70F0E719F8DC
:104B5000041B8DF8001000208DF80100EA460120AA
:104B600003E059F804AB4FF0FF3061074FF000014C
:104B700002D40DE008F101018846B9420FDA804500
:104B8000F8DB1AF808100029F4D108E008F1010157
:104B900088468142FADB1AF808100029F6D10598F8
:104BA0005B46A0EB080721463846179A00F094FAB6
:104BB000284400EB080507E04DE029E10DE01AF874
:104BC000010B5A4617999047B8F10108F7D25B4696
:104BD00021463846179A13E142E00A220092C4F3B4
:104BE00002524FF0000A022A08D059F804CB032AD7
:104BF0004FEAEC710AD00DE029E02AE009F1070143
:104C000021F00702F2E802C1914609E00FFA8CFC9C
:104C10004FEAEC71042A03D14FFA8CFC4FEAEC7195
:104C2000002907DA0A460021DCF1000C61EB0201E1
:104C30002D2202E0220504D52B228DF8042001222A
:104C400003E0E20701D02022F7E7904659E00A216D
:104C500002E010220DE010214FF0000A00910BE05D
:104C600010224FF0000A44F004040827009203E0E9
:104C700008224FF0000A0092C4F30252022A05D023
:104C800059F804CB0021032A08D009E009F10701F3
:104C900021F00702F2E802C1914605E01FFA8CFC00
:104CA000042A01D10CF0FF0C4FF00008220728D590
:104CB000702806D0009B83F0100353EA0A0305D046
:104CC0000EE040228DF80420012208E05CEA010297
:104CD00006D030228DF804208DF80500022290467F
:104CE000009B83F0080353EA0A030AD15CEA01023D
:104CF00001D1620705D530228DF804204FF001085C
:104D00007F1E582804D034A003900EA802900DE016
:104D100036A0F9E753466046009AFBF713FD844638
:104D20000398825C0298401E029002705CEA0100C7
:104D3000F0D1029806A9081A00F1200A600702D5EE
:104D400024F4803400E00127574502DDA7EB0A0078
:104D500000E0002000EB0A01009005984144401A51
:104D60000590E00306D45B462146179A059800F0AB
:104D7000B3F90544002706E001A85A46C05D17991B
:104D800090476D1C7F1C4745F6DBE0030CD55B4666
:104D90002146179A059800F09FF9054404E0302059
:104DA0005A46179990476D1C0099481E009000299B
:104DB000F5DC08E0029802995A460078491C0291F5
:104DC000179990476D1CBAF10001AAF1010AF1DCB4
:104DD00065E10000092801003031323334353637BF
:104DE0003839616263646566000000003031323337
:104DF00034353637383941424344454600000000D7
:104E000000F058F90544761C307800287FF4ECADAA
:104E100019B02846BDE8F08F620700D4062709F1D3
:104E2000070222F0070CFCE80223E14603F00048E9
:104E30005FEA080C02D00FF2702C0DE05FEA045C10
:104E400002D50FF2682C07E05FEAC47C02D00FF2B3
:104E5000602C01E0AFF2700C4FF0FF3823F00043FC
:104E6000CDF850C065280CD006DC452809D046286E
:104E70001DD047283DD13DE0662818D067287ED157
:104E800038E00021112F01DB112000E0781CCDE972
:104E9000000106A90EA8FFF7DDFCDDE90F010E9A5F
:104EA00003910021009207F1010A04914DE04FF0B7
:104EB00000400097CDE9011006A90EA8FFF7CAFC33
:104EC000DDE90F0203920E9B11990022DDF80CA080
:104ED0000093049211B9791C00EB010AB7EB0A00A8
:104EE00004D4C0F1FF3007F1010A0490AAEB0700D7
:104EF000019044E0012F00DA01270021112F01DD8C
:104F0000112000E03846CDE9000106A90EA8FFF700
:104F1000A1FCDDE90F010E9A03910021049100929A
:104F2000BA4621070CD40399514500DA8A46BAF1F2
:104F3000010F05DD009AAAF10101515C302908D06A
:104F4000B84202DA10F1040F06DA0121CDE90110AE
:104F500015E0AAF10101E9E7002805DC0499014404
:104F60000491AAEB000102E0411C514500DD8A4694
:104F70000499401A401C01904FF000400290200715
:104F800004D40198504501DBCDF8048000208DF851
:104F90004F0002980DF14F07B0F1004F25D02B20A4
:104FA0000E9002984FF0020800280CDA404202905E
:104FB0002D200E9007E00A210298FBF7ADFB30315F
:104FC000029007F8011DB8F10001A8F10108F2DC18
:104FD00002980028EFD1791E0E980870307800F002
:104FE000200040F0450007F8020D12A8C01B00F198
:104FF00007081498007800B1012000EB0A0101981D
:1050000001EBE07105984144401A401E0590E00311
:1050100006D45B462146179A059800F05DF80544D2
:105020001498007818B15A46179990476D1CE00300
:1050300024D55B462146179A059800F04DF80544A3
:105040001CE00498002807DBDDE90301884203DD4A
:105050000098405C179901E0179930205A46904714
:10506000049805F10105401C04900198401E019030
:1050700004D12E205A46179990476D1CBAF10001B1
:10508000AAF1010ADDDC05E017F8010B5A46179971
:1050900090476D1CB8F10001A8F10108F4DC5B46F3
:1050A0002146179A0598ABE62D0000002B00000062
:1050B000200000002DE9F041044600251E46174659
:1050C000880404D405E039462020B0476D1C641ED6
:1050D000F9D52846BDE8F0812DE9F04104460025C8
:1050E0001E469046C80301D5302700E020278804DB
:1050F00004D505E041463846B0476D1C641EF9D51D
:105100002846BDE8F0810A68531C0B601070704798
:1051100013B54FF6FF73012269460248FDF709FFF8
:1051200001201CBD904C00202DE9F04DC84A002400
:1051300090B0914205DA21F00043934201D805D1A5
:1051400020B110B0BDE8F04DFFF766BBB1F5801F90
:105150001BDA53EA000209D0002911DA0120FFF717
:1051600073FB10B0BDE8F04DFFF759BB0220FFF70D
:105170006BFBFFF749FB10B081F00041BDE8F08DFB
:105180006FF035043622FBF741FA04EB2152C1F3EC
:105190001308B049A2F2FF33414401F4801282F0B7
:1051A0007F6103EB225281F04051009241EA0801F5
:1051B0000022A94BFBF743F9044608F10200A74E71
:1051C000C0F313000D467E44032867D2D6E90023BE
:1051D0002046FBF7B5FB1ED10098002802BFD6E998
:1051E000000110B0BDE8F08DFBF735FA07460C461C
:1051F0009B4A9C4BFBF729F906460D469A4A9B4B66
:1052000038462146FBF721F910B032462B46BDE85F
:10521000F04DFBF773B84FF05532954B20462946B9
:10522000FBF713F90022934BFBF70CF906460F46E8
:1052300022462B4610461946FBF707F932463B46F5
:10524000FBF703F9064600980F46F0B1FBF703FAA7
:1052500080468A46824A834BFBF7F7F832463B4644
:10526000FBF7F0F822462B46FBF7E9F805460C461B
:105270007D4A7E4B40465146FBF7E7F810B02A4680
:105280002346BDE8F04DFBF7DAB80B4610B03246C6
:1052900020462946BDE8F04DFBF7D1B800224FF07B
:1052A00080432046FBF72AF802460B462046294653
:1052B000FBF73DF906460F460098FBF7CCF9CDE920
:1052C000040132463B4610463946FBF7BEF80C90C7
:1052D00069480C9A4044019009910B461046FBF72F
:1052E000B4F88246024665488B46C8F151080B4621
:1052F00008F5D72803217844FFF730FA52465B4679
:10530000FBF7A3F80A905E480D9152465B460421D4
:105310007844FFF723FA099B0C9AFBF796F884462A
:1053200001980D9B40EA080860460A9AFAF7E6FFE2
:1053300083460891B8F1000F4EDD4FF0FF32204652
:105340002946FBF763F922462B46FBF77EF8804699
:1053500000988A4660B3DDE90401414A414BFBF7FE
:1053600074F8099100905A4640465146089BFAF756
:10537000C5FF32463B46FBF768F8099B009AFAF7EF
:10538000BDFF42465346FBF75DF822462B46FBF72E
:1053900056F804460D46DDE90401334A334BFBF76A
:1053A00054F810B022462B46BDE8F04DFBF747B845
:1053B0005A464046089BFAF7A1FF32463B46FBF7A8
:1053C00044F842465346FBF73DF810B022462B46C0
:1053D000BDE8F04DFBF736B8009840B3DDE90401B5
:1053E0001F4A204BFBF731F880468A465A46204632
:1053F0002946089BFBF723F832463B46FBF725F886
:1054000042465346FBF71BF822462B46FBF717F89C
:1054100004460D46DDE90401134A144BFBF715F869
:1054200010B022462B46BDE8F04DFBF708B80B46FE
:105430005A4620462946FBF702F832463B46FBF720
:1054400004F810B022462B46BDE8F04DFAF7FABF3B
:105450000000F07F645F09000000F03F8E04000050
:10546000763C7935EF39EA3D0000E0FE422EE63F1A
:105470005555D53F0000E03F86EBF9FF26030000BD
:1054800024030000FCF718FBFEF79CFCFDF7ACFEC4
:10549000FDF784FEFDF732FFFEF706F8FEF720F871
:1054A000FDF784FFFDF7A6FFFDF74CFFFDF7C6FFF4
:1054B000FEF73AFA20480068C16841F01001C16067
:1054C000FA221E491C48FDF74FFC1D48FDF7E8F87D
:1054D0001C48FDF7E5F81C48FDF7E2F81B48FDF70E
:1054E000DFF8FEF7C8F9FDF7B3FD19A11A48FFF779
:1054F00021F9194816A10A30FFF71CF9FEF772FBD3
:10550000014616A0FFF706F9012219491948FDF7CF
:1055100077FCFFF7C5F8FEF733FB17A0FFF7FAF8A3
:105520001848807A800701D5FEF7B0F9FEF7AEF98A
:1055300000F02AF8FAE70000904C0020344B0020DD
:10554000344A0020744A0020B44A0020F44A002063
:105550002D2D2D2300000000B44F0020466C6173F8
:1055600068204944206973203078255800000000E5
:105570003A000020D04C0020496E6974204F4B0D3A
:105580000A000000984D002010B500201449FFF7D4
:10559000CBFD0022134BFAF7CAFF02460B464FF031
:1055A00060401149FAF7AAFE02460B4600200F4957
:1055B000FAF7BDFF4FF0C0420D4BFAF740FF002253
:1055C0000C4BFAF79BFEFBF777F80B498861FBF76A
:1055D00060F80246BDE810400B4608A0FFF79AB8F5
:1055E000D7A3014000D6AA40E1796B3F0000F03F0D
:1055F000661271400000E03F0000002054656D70AD
:1056000020697320256600000000000000000000F3
:105610000102030406070809000000000102030458
:1056200004FA97999999D93FAF788E1DC571CC3FEF
:105630009FC678D0099AC33F935555555555E53FB8
:10564000599322942449D23FDE03CB966446C73F48
:1056500044523EDF12F1C23F000000000000000093
:105660008056000800000020D80000002A480008EA
:1056700058570008D8000020C0AA00003A48000887
:1056800000000000010A00061E01010000000100E8
:105690000000000000000000000000002D2D2D2D56
:1056A0000056312E303000000000000000000000E5
:1056B00000000000000606000000000000000000DE
:1056C000000000FF554F4B054172696573000000F3
:1056D00000A24A04000100050101010000000303CB
:1056E00003000300030003030003000000000600A2
:1056F00000000000000000000000704200000000F8
:105700009EFFFFFF000000000000000000000000FE
:105710000000000000000000000000000000000089
:105720000000000000000000000000000200000077
:10573000551110012606180000000000000017EFA8
:105740000100000010000000000000000000000048
:08575000000000000000000051
:0400000508000131BD
:00000001FF
